{
  "contractName": "Counter",
  "abi": [
    {
      "anonymous": false,
      "inputs": [
        {
          "indexed": false,
          "internalType": "uint256",
          "name": "counter",
          "type": "uint256"
        }
      ],
      "name": "Added",
      "type": "event"
    },
    {
      "anonymous": false,
      "inputs": [
        {
          "indexed": false,
          "internalType": "uint256",
          "name": "counter",
          "type": "uint256"
        }
      ],
      "name": "Changed",
      "type": "event"
    },
    {
      "constant": false,
      "inputs": [],
      "name": "add",
      "outputs": [],
      "payable": false,
      "stateMutability": "nonpayable",
      "type": "function"
    },
    {
      "constant": false,
      "inputs": [],
      "name": "subtract",
      "outputs": [],
      "payable": false,
      "stateMutability": "nonpayable",
      "type": "function"
    },
    {
      "constant": true,
      "inputs": [],
      "name": "getCounter",
      "outputs": [
        {
          "internalType": "uint256",
          "name": "",
          "type": "uint256"
        }
      ],
      "payable": false,
      "stateMutability": "view",
      "type": "function"
    }
  ],
  "bytecode": "0x60806040526000805534801561001457600080fd5b5061026a806100246000396000f3fe608060405234801561001057600080fd5b50600436106100415760003560e01c80634f2be91f146100465780636deebae3146100505780638ada066e1461005a575b600080fd5b61004e610078565b005b6100586100fd565b005b61006261022c565b6040518082815260200191505060405180910390f35b60008081548092919060010191905055507f64a55044d1f2eddebe1b90e8e2853e8e96931cefadbfa0b2ceb34bee360619416000546040518082815260200191505060405180910390a17f938d2ee5be9cfb0f7270ee2eff90507e94b37625d9d2b3a61c97d30a4560b8296000546040518082815260200191505060405180910390a1565b60008054116040518060400160405280600f81526020017f434f554e5445525f544f4f5f4c4f570000000000000000000000000000000000815250906101de576040517f08c379a00000000000000000000000000000000000000000000000000000000081526004018080602001828103825283818151815260200191508051906020019080838360005b838110156101a3578082015181840152602081019050610188565b50505050905090810190601f1680156101d05780820380516001836020036101000a031916815260200191505b509250505060405180910390fd5b506000808154809291906001900391905055507f938d2ee5be9cfb0f7270ee2eff90507e94b37625d9d2b3a61c97d30a4560b8296000546040518082815260200191505060405180910390a1565b6000805490509056fea265627a7a72315820a1798ef15e8fff45b2a1755fcf9e42ca243b5953cf6367139104f6ebb33887e664736f6c63430005100032",
  "source": "pragma solidity ^0.5.11;\n\ncontract Counter {\n  uint256 counter = 0;\n  string internal constant ERROR_TOO_LOW = \"COUNTER_TOO_LOW\";\n  event Changed(uint256 counter);\n  event Added(uint256 counter);\n\n  function add() public {\n    counter++;\n    emit Added(counter);\n    emit Changed(counter);\n  }\n\n  function subtract() public {\n    require(counter > 0, ERROR_TOO_LOW);\n    counter--;\n    emit Changed(counter);\n  }\n\n  function getCounter() public view returns (uint256) {\n    return counter;\n  }\n}",
  "sourcePath": "/Users/oker/Desktop/CounterWeb3/contracts/Counter.sol",
  "compiler": {
    "name": "solc",
    "version": "0.5.16+commit.9c3226ce.Emscripten.clang"
  },
  "schemaVersion": "3.2.3",
  "updatedAt": "2020-11-21T03:39:36.941Z",
  "devdoc": {
    "methods": {}
  },
  "userdoc": {
    "methods": {}
  }
}